:020000040800F2
:10000000000002200D130008090400080B0400087A
:100010000D0400080F04000811040008000000008F
:1000200000000000000000000000000013040008B1
:100030001504000800000000170400081904000857
:100040005D1300085D1300085D1300085D130008D0
:100050005D1300085D1300085D1300085D130008C0
:100060005D1300085D1300085D1300085D130008B0
:100070005D1300085D1300085D1300085D130008A0
:100080005D1300085D1300085D1300085D13000890
:100090005D1300085D1300085D1300085D13000880
:1000A0005D1300085D1300085D1300085D13000870
:1000B0005D1300085D1300085D1300085D13000860
:1000C0005D1300085D1300085D1300085D13000850
:1000D0005D1300085D1300085D1300085D13000840
:1000E0005D1300085D1300085D1300085D13000830
:1000F0005D1300085D1300085D1300085D13000820
:100100005D1300085D1300085D1300085D1300080F
:100110005D1300085D1300085D1300085D130008FF
:100120005D1300085D1300085D1300085D130008EF
:100130005D13000800000000000000005D130008CF
:100140005D1300085D1300085D1300085D130008CF
:100150005D1300085D1300085D1300085D130008BF
:100160005D1300085D1300085D1300085D130008AF
:100170005D1300085D1300085D1300080000000017
:10018000000000005D1300080000000000000000F7
:100190005D13000800000000000000005D1300086F
:1001A0000000000000000000000000005D130008D7
:1001B0005D1300085D1300085D1300085D1300085F
:0401C0005D130008C3
:1001C40053B94AB9002908BF00281CBF4FF0FF31BA
:1001D4004FF0FF3000F00CB8ADF1080C6DE904CE1F
:1001E40001F0E8F8DDF804E0DDE9022304B070472B
:1001F400704700BF10B5054C237833B9044B13B1D5
:100204000448AFF300800123237010BD0C000020CC
:10021400000000007416000808B5034B1BB1034925
:100224000348AFF3008008BD000000001000002068
:100234007416000870B58AB005AD002405940694C0
:100244000794089409940194224B1A6B42F0040217
:100254001A631A6B02F004020192019A02941A6B57
:1002640042F080021A631A6B02F080020292029A30
:1002740003941A6B42F001021A631A6B02F0010232
:100284000392039A04941A6B42F002021A631B6BE2
:1002940003F002030493049B0F4E224620213046B0
:1002A40000F052FF4FF4005305934FF404130693E8
:1002B40007942946094800F057FE2023059301239B
:1002C4000693079408942946304600F04DFE0AB080
:1002D40070BD00BF00380240000002400008024028
:1002E40072B6FEE708B50A480A4B03604FF4E133DF
:1002F400436000238360C36003610C224261836115
:10030400C36100F0DCF900B908BDFFF7E9FF00BFE5
:10031400280000200044004010B594B007AC3422FB
:100324000021204601F019F800230293039304935B
:100334000593069300931F4A116C41F08051116498
:10034400126C02F080520092009A01931A490A68D2
:1003540022F4404242F480420A600A6802F44042B5
:100364000192019A0222079201210A9110210B9114
:100374000D920E930F914FF4A873109304231193CD
:1003840012921392204600F0CDFB78B90F2302930A
:1003940002210391002304934FF4805205920693A3
:1003A40002A800F021FA18B914B010BDFFF798FFA5
:1003B400FFF796FF003802400070004000B587B098
:1003C40000F058FFFFF7A8FFFFF734FFFFF78AFF9D
:1003D4000DF1040C094C0FCCACE80F0023682CF889
:1003E400023B1B0C8CF800300A23132201A9044899
:1003F40000F095F9642000F069FFE9E78C16000825
:1004040028000020FEE7FEE7FEE7FEE7FEE7704770
:100414007047704708B500F047FF08BD00B583B0CA
:10042400002100910C4B5A6C42F480425A645A6C7D
:1004340002F480420092009A01911A6C42F08052B8
:100444001A641B6C03F080530193019B072000F096
:10045400B5FE03B05DF804FB0038024000B589B076
:100464000023039304930593069307930268154BA3
:100474009A4202D009B05DF804FB0021019103F512
:10048400FA331A6C42F400321A641A6C02F4003221
:100494000192019A02911A6B42F001021A631B6BDA
:1004A40003F001030293029B0C230393022304939E
:1004B400032306930723079303A9034800F054FD7D
:1004C400D8E700BF0044004000000240026802F187
:1004D4000C0353E8003F23F490730C3242E80031DC
:1004E4000029F3D1026802F1140353E8003F23F01A
:1004F4000103143242E800310029F3D1036B012BCC
:1005040005D0202380F8423000230363704702683B
:1005140002F10C0353E8003F23F010030C3242E8CD
:1005240000310029F3D1ECE710B5044602681369E1
:1005340023F44053C1680B431361836802691A436F
:1005440043691A43C3691A430168CB6823F4164309
:1005540023F00C031343CB600268536923F4407304
:1005640081690B4353610368314A934206D002F513
:100574008062934202D000F0EDF901E000F0FAF954
:10058400E369B3F5004F29D00021031849411B1832
:1005940041F10001C90041EA5371DB001818636896
:1005A4004FEA83024FEA937341F10001FFF708FE1B
:1005B400204AA2FB00314909642303FB11031B01F8
:1005C4003233A2FB03235B0903F0F00202EB0112B6
:1005D40003F00F03216813448B6010BD002302183D
:1005E40043EB0301121841F10001C90041EA5271C1
:1005F400D200101841F10001626892185B41FFF7C4
:10060400DFFD0C4AA2FB00314909642303FB1103FB
:10061400DB003233A2FB03235B095A0002F4F872B5
:1006240002EB011203F00703216813448B60D4E743
:10063400001001401F85EB512DE9F04383B00546BE
:100644000E4617469946DDF828802B681C6836EA62
:1006540004040CBF01240024BC4228D1B8F1FF3F9C
:10066400F3D000F02DFEA0EB0900404523D8B8F1EB
:10067400000F22D02B68DA6812F0040FE5D0802E28
:10068400E3D0402EE1D01A6812F0080FDDD0002428
:1006940001941A6801925B680193019B2846FFF755
:1006A40015FF08236B6485F84040012000E000201A
:1006B40003B0BDE8F0830320FAE70320F8E760B352
:1006C40010B5044690F8413013B3242384F8413024
:1006D4002268D36823F40053D3602046FFF724FF35
:1006E4002268136923F4904313612268536923F049
:1006F4002A0353612268D36843F40053D360002073
:100704006064202384F8413084F84230606310BD73
:1007140080F84030FFF7A2FED7E7012070472DE9AB
:10072400F04182B01E4690F84130202B56D1044649
:100734000D469046002955D00AB901204FE0002308
:100744004364212380F8413000F0BAFD0746A4F841
:100754002480A4F82680A368B3F5805F02D04FF00C
:10076400000814E023692BB34FF000080FE02023A6
:1007740084F84130032032E038F8023B2268C3F3A6
:1007840008035360E28C92B2013A92B2E284E38CA1
:100794009BB293B100963B46002280212046FFF78E
:1007A4004BFF0028E3D1002DE6D015F8012B236878
:1007B4005A60E7E7A8460025E9E700963B46002291
:1007C40040212046FFF738FF18B9202384F8413030
:1007D40005E0202384F84130032000E0022002B029
:1007E400BDE8F0810120FAE7002800F09B8070B595
:1007F4000D4604464F4B1B6803F00F038B4208D28F
:10080400CBB24C4A1370136803F00F038B4240F0D1
:100814008B80236813F0020F17D013F0040F04D059
:10082400454A936843F4E0539360236813F0080F38
:1008340004D0414A936843F4604393603E4A93680A
:1008440023F0F003A1680B439360236813F0010FB6
:1008540032D06368012B21D09A1E012A25D9364A49
:10086400126812F0020F61D033498A6822F0030241
:1008740013438B6000F024FD06462F4B9B6803F066
:100884000C036268B3EB820F16D000F019FD801BD5
:1008940041F288339842F0D9032042E0264A126894
:1008A40012F4003FE0D101203BE0234A126812F029
:1008B400007FD9D1012034E01E4B1B6803F00F03E5
:1008C400AB4207D9EAB21B4B1A701B6803F00F0343
:1008D400AB422DD1236813F0040F06D0164A936857
:1008E40023F4E053E1680B439360236813F0080F8B
:1008F40007D0114A936823F46043216943EAC10392
:10090400936000F047F80C4B9B68C3F303130B4A46
:10091400D35CD8400A4B18600A4B186800F084FC7A
:10092400002070BD012070470120FAE70120F8E79C
:100934000120F6E7003C024000380240A8160008F7
:100944000800002004000020014B1868704700BF15
:100954000800002008B5FFF7F7FF044B9B68C3F3BA
:100964008223034AD35CD84008BD00BF003802404C
:10097400A016000808B5FFF7E7FF044B9B68C3F314
:100984004233034AD35CD84008BD00BF003802405C
:10099400A016000808B5604B9B6803F00C03082BF5
:1009A40006D00C2B5ED0042B40F0B4805B4833E0BF
:1009B400594B5A6802F03F025B6813F4800F2CD045
:1009C400554B5868C0F388104FEA401CBCEB000C30
:1009D4006EEB0E0E4FEA8E1343EA9C634FEA8C11C2
:1009E400B1EB0C0163EB0E03DB0043EA5173C90066
:1009F40011EB000C43F10003590200234FEA4C2091
:100A040041EADC51FFF7DCFB434B5B68C3F3014372
:100A140001335B00B0FBF3F008BD3F4B5868C0F3F3
:100A240088104FEA401CBCEB000C6EEB0E0E4FEA34
:100A34008E1343EA9C634FEA8C11B1EB0C0163EB18
:100A44000E03DB0043EA5173C90011EB000C43F1C0
:100A54000003990200234FEA8C2041EA9C51FFF7DE
:100A6400AFFBD1E72C4B5A6802F03F025B6813F4EA
:100A7400800F2AD0284B5868C0F388104FEA401CD6
:100A8400BCEB000C6EEB0E0E4FEA8E1343EA9C6334
:100A94004FEA8C11B1EB0C0163EB0E03DB0043EA6C
:100AA4005173C90011EB000C43F1000359020023F8
:100AB4004FEA4C2041EADC51FFF782FB164B5B689E
:100AC400C3F30273B0FBF3F0A6E7134B5868C0F30B
:100AD40088104FEA401CBCEB000C6EEB0E0E4FEA84
:100AE4008E1343EA9C634FEA8C11B1EB0C0163EB68
:100AF4000E03DB0043EA5173C90011EB000C43F110
:100B04000003990200234FEA8C2041EA9C51FFF72D
:100B140057FBD3E702487FE70038024000127A000F
:100B24000024F400002800F0018270B582B004466D
:100B3400036813F0010F41D0994B9B6803F00C0339
:100B4400042B32D0964B9B6803F00C03082B27D060
:100B5400934B9B6803F00C030C2B59D06368B3F5DB
:100B6400803F5BD0B3F5A02F5ED08D4B1A6822F482
:100B740080321A601A6822F480221A606368002B9B
:100B84005CD000F09DFB0546854B1B6813F4003FC9
:100B940014D100F095FB401B6428F5D90320CCE167
:100BA4007F4B5B6813F4800FD2D07D4B1B6813F42A
:100BB400003F03D06368002B00F0BA81236813F070
:100BC400020F60D0764B9B6813F00C0F4AD0744B25
:100BD4009B6803F00C03082B3FD0714B9B6803F018
:100BE4000C030C2B69D0E368002B75D06D4B0122EC
:100BF4001A6000F065FB0546694B1B6813F0020F91
:100C040061D100F05DFB401B0228F5D9032094E17B
:100C1400634B5B6813F4800FA0D0C6E7604A136887
:100C240043F480331360A9E75D4B1A6842F48022D1
:100C34001A601A6842F480321A609FE700F040FBA1
:100C44000546574B1B6813F4003FB7D000F038FB40
:100C5400401B6428F5D903206FE1514B5B6813F402
:100C6400800FBAD14E4B1B6813F0020F03D0E36818
:100C7400012B40F05F814A4A136823F0F80321698D
:100C840043EAC1031360236813F0080F49D0636972
:100C9400002B33D0434B0122C3F8802E00F010FB0D
:100CA40005463F4B5B6F13F0020F3AD100F008FB8F
:100CB400401B0228F5D903203FE1394B5B6813F44C
:100CC400800F90D1CEE7364A136823F0F8032169E8
:100CD40043EAC1031360D6E7324B00221A6000F0E6
:100CE400EFFA05462E4B1B6813F0020FCBD000F031
:100CF400E7FA401B0228F5D903201EE1294B002204
:100D0400C3F8802E00F0DCFA0546254B5B6F13F028
:100D1400020F06D000F0D4FA401B0228F5D90320B4
:100D24000BE1236813F0040F76D01D4B1B6C13F0FA
:100D3400805F33D100230193194B1A6C42F0805227
:100D44001A641B6C03F080530193019B0125164B1D
:100D54001B6813F4807F29D0A368012B3AD0052B9C
:100D64003ED00F4B1A6F22F001021A671A6F22F05D
:100D740004021A67A368002B3CD000F0A1FA0646CF
:100D8400074B1B6F13F0020F45D100F099FA801B3B
:100D940041F288339842F3D90320CEE00025D6E708
:100DA4000038024000004742007000406B4A13685C
:100DB40043F48073136000F083FA0646674B1B68A4
:100DC40013F4807FC8D100F07BFA801B0228F5D988
:100DD4000320B2E0624A136F43F001031367C9E7CB
:100DE4005F4B1A6F42F004021A671A6F42F0010255
:100DF4001A67BFE700F064FA0646594B1B6F13F0FD
:100E0400020F08D000F05CFA801B41F2883398424C
:100E1400F3D9032091E0EDB9A369002B00F08C8095
:100E24004F4A926802F00C02082A54D0022B17D0C1
:100E34004C4B00221A6600F043FA0446484B1B68E8
:100E440013F0007F45D000F03BFA001B0228F5D9CF
:100E5400032072E0424A136C23F080531364DBE7EF
:100E6400404B00221A6600F02BFA05463C4B1B68E7
:100E740013F0007F06D000F023FA401B0228F5D9B6
:100E840003205AE0E369226A1343626A43EA821345
:100E9400A26A5208013A43EA0243E26A43EA02635D
:100EA400226B43EA02732E4A53602E4B01221A66C8
:100EB40000F006FA04462A4B1B6813F0007F06D1A3
:100EC40000F0FEF9001B0228F5D9032035E00020CC
:100ED40033E0002031E0012B31D0214B5B6803F477
:100EE4008001E26991422CD103F03F02216A8A42D7
:100EF40029D1616A47F6C0721A40B2EB811F24D12E
:100F040003F44031A26A5208013AB1EB024F1ED1F8
:100F140003F07062E16AB2EB016F1AD103F0E043AF
:100F2400226BB3EB027F16D1002006E0012070474C
:100F3400012002E0012000E0002002B070BD012089
:100F4400FBE70120F9E70120F7E70120F5E701209D
:100F5400F3E70120F1E70120EFE700BF0070004054
:100F6400003802400000474200230F2B00F2E380C8
:100F740070B582B065E085684FEA430E032404FA35
:100F84000EF425EA0405CC6804FA0EF42C438460BC
:100F9400446824EA02044A68C2F300129A402243D5
:100FA40042605CE0DC08083450F8242003F00705B4
:100FB400AD004FF00F0E0EFA05FE22EA0E0E0A697E
:100FC400AA4042EA0E0240F824205CE0062200E037
:100FD400002202FA0EF22A430234574D45F8242027
:100FE400564A94686FEA0C0224EA0C054E6816F41B
:100FF400801F01D04CEA0405504CA560E46802EA65
:1010040004054E6816F4001F01D04CEA04054B4C4D
:10101400E560646802EA04054E6816F4003F01D0F6
:101024004CEA0405454C6560246822404D6815F47B
:10103400803F01D04CEA0402404C226001330F2B64
:1010440077D801229A400C6804EA020C32EA0404BC
:10105400F4D14C6804F00304013C012C8BD94A6898
:1010640002F00302032A09D0C4685D000322AA40E7
:1010740024EA02048A68AA402243C2604A6802F051
:101084000302022A8ED004684FEA430E032202FAB6
:101094000EF224EA02044A6802F0030202FA0EF293
:1010A400224302604A6812F4403FC7D000220192F2
:1010B400234A546C44F480445464526C02F48042D5
:1010C4000192019A9C08A51C1B4A52F8255003F072
:1010D400030E4FEA8E0E0F2202FA0EF225EA0205E3
:1010E400184A90423FF474AF02F58062904216D0E1
:1010F40002F58062904214D002F58062904212D0D0
:1011040002F58062904210D002F5806290420ED0C7
:1011140002F5806290423FF459AF072259E7012259
:1011240057E7022255E7032253E7042251E7052239
:101134004FE702B070BD704700380140003C0140E9
:1011440000380240000002400AB18161704709047E
:1011540081617047002808DB0901C9B200F16040D1
:1011640000F5614080F80013704700F00F0009019A
:10117400C9B2014B1954704714ED00E000B500F0FA
:101184000700C0F1070CBCF1040F28BF4FF0040C9A
:10119400031D062B0FD9C31E4FF0FF3E0EFA0CF0B1
:1011A40021EA000199400EFA03FE22EA0E0241EA06
:1011B40002005DF804FB0023EEE70000074AD36851
:1011C40023F4E0631B041B0C000200F4E0600343FF
:1011D40043F0BF6343F40033D360704700ED00E095
:1011E40010B50446054BD868C0F30220FFF7C6FFCC
:1011F40001462046FFF7AEFF10BD00BF00ED00E042
:101204000138B0F1807F0BD24FF0E0235861054ADA
:10121400F02182F823100020986107221A61704798
:101224000120704700ED00E010B504460E4B1A781B
:101234004FF47A73B3FBF2F30C4A1068B0FBF3F08B
:10124400FFF7DEFF68B90F2C01D901200AE0002264
:1012540021464FF0FF30FFF7C3FF054B1C60002011
:1012640000E0012010BD00BF0000002008000020A5
:101274000400002008B50B4B1A6842F400721A608F
:101284001A6842F480621A601A6842F480721A6022
:101294000320FFF793FF0020FFF7C6FFFFF7BEF818
:1012A400002008BD003C0240034A1168034B1B7830
:1012B4000B441360704700BF700000200000002042
:1012C400014B1868704700BF7000002038B5044611
:1012D400FFF7F6FF0546B4F1FF3F02D0044B1B783D
:1012E4001C44FFF7EDFF401BA042FAD338BD00BFFA
:1012F40000000020034AD2F8883043F47003C2F897
:101304008830704700ED00E0DFF834D0FFF7F2FFDB
:101314000C480D490D4A002302E0D458C45004334C
:10132400C4188C42F9D30A4A0A4C002301E0136022
:101334000432A242FBD300F019F8FFF73FF87047DC
:1013440000000220000000200C000020C816000845
:101354000C00002074000020FEE702440346934280
:1013640000D1704703F8011BF9E7000070B50D4B7D
:101374000D4D5B1B9C100026A64209D100F078F9A4
:101384000A4D0B4B5B1B9C100026A64205D170BD79
:1013940055F8043B98470136EEE755F8043B984767
:1013A4000136F2E7C0160008C0160008C01600088F
:1013B400C41600082DE9F0478C468E46089E154653
:1013C40004461946002B40F0D080724547D9B2FA42
:1013D40082F74FB1C7F120030EFA07FC20FA03F39A
:1013E400BD4043EA0C0CBC404FEA154EA8B2BCFB0E
:1013F400FEF8230C0EFB18CC08FB00F943EA0C435F
:10140400994528D9EB1808F1FF3204D2994502D93D
:10141400A8F102022B44A3EB0903A4B2B3FBFEFC24
:101424000EFB1C330CFB00F044EA0344A04214D925
:101434002C190CF1FF3304D2A04202D9ACF10203FF
:101444002C44241A43EA02401EB1FC4000233460B9
:101454007360BDE8F0874246DDE76346F1E7002AA2
:1014640079D0B2FA82F3002B3FD01946C1F12003A0
:1014740002FA01F52EFA03F20EFA01FE20FA03F342
:1014840043EA0E034FEA154E00FA01F4B2FBFEFCE8
:10149400AFB20EFB1C201A0C0CFB07F842EA004208
:1014A40090455AD9AA180CF1FF3004D2904502D9BC
:1014B400ACF102002A44A2EB08029BB2B2FBFEFC90
:1014C4000EFB1C220CFB07F743EA02439F4246D95A
:1014D400EB180CF1FF3204D29F4202D9ACF10202A4
:1014E4002B44DB1B42EA004202E0AEEB0203012282
:1014F4004FEA154EAFB2B3FBFEFC200C0EFB1C33BF
:101504000CFB07F840EA034398452AD9EB180CF181
:10151400FF3004D2984502D9ACF102002B44A3EB6E
:101524000803A4B2B3FBFEFC0EFB1C330CFB07F751
:1015340044EA0344A74216D92C190CF1FF3304D210
:10154400A74202D9ACF102032C44E41B43EA004055
:101554000F46114678E71F2188E76046ABE76246ED
:10156400BFE76046DBE76346EFE7734506D916B984
:10157400002108466DE7C6E9000EF9E7B3FA83F7E0
:1015840087B9734501D3824207D8841A6EEB0303EB
:1015940001209C461EB900215BE73846FAE7C6E9FC
:1015A400004CF8E7C7F1200CBB4022FA0CF51D43B0
:1015B40020FA0CF12EFA0CF30EFA07FE41EA0E01A2
:1015C4004FEA154900FA07F4B3FBF9F81FFA85FE50
:1015D40009FB18300B0C08FB0EFA43EA00439A454A
:1015E40002FA07F240D9EB1808F1FF3004D29A4509
:1015F40002D9A8F102002B44A3EB0A0389B2B3FB7E
:10160400F9F809FB183308FB0EFE41EA03418E4545
:101614002CD9691808F1FF3304D28E4502D9A8F1F8
:101624000203294443EA0040A0FB0298A1EB0E0107
:101634004145CE46434602D306D14C4504D2B9EBCC
:10164400020E68EB05030138002EA4D0B4EB0E02A1
:1016540061EB030101FA0CFC22FA07F34CEA0303E1
:10166400F940C6E9003196E74046C5E74346D9E765
:10167400F8B500BFF8BC08BC9E467047F8B500BF7B
:08168400F8BC08BC9E4670474B
:10168C004D61747468657720497320476179202116
:10169C000D0A00000000000001020304000000001D
:0C16AC000000000001020304060708090A
:0816B80000FDFF7F01000000AE
:0416C0001D020008FF
:0416C400F901000820
:0C16C80001000000100000000024F400ED
:040000050800130DCF
:00000001FF
